{
  "contractName": "Ico",
  "abi": [
    {
      "constant": true,
      "inputs": [],
      "name": "startDate",
      "outputs": [
        {
          "name": "",
          "type": "uint256"
        }
      ],
      "payable": false,
      "stateMutability": "view",
      "type": "function",
      "signature": "0x0b97bc86"
    },
    {
      "constant": true,
      "inputs": [],
      "name": "owner",
      "outputs": [
        {
          "name": "",
          "type": "address"
        }
      ],
      "payable": false,
      "stateMutability": "view",
      "type": "function",
      "signature": "0x8da5cb5b"
    },
    {
      "constant": true,
      "inputs": [],
      "name": "initialConversion",
      "outputs": [
        {
          "name": "",
          "type": "uint8"
        }
      ],
      "payable": false,
      "stateMutability": "view",
      "type": "function",
      "signature": "0x9443391b"
    },
    {
      "constant": true,
      "inputs": [],
      "name": "endDate",
      "outputs": [
        {
          "name": "",
          "type": "uint256"
        }
      ],
      "payable": false,
      "stateMutability": "view",
      "type": "function",
      "signature": "0xc24a0f8b"
    },
    {
      "constant": true,
      "inputs": [
        {
          "name": "",
          "type": "address"
        }
      ],
      "name": "wishList",
      "outputs": [
        {
          "name": "",
          "type": "uint256"
        }
      ],
      "payable": false,
      "stateMutability": "view",
      "type": "function",
      "signature": "0xea599106"
    },
    {
      "inputs": [
        {
          "name": "_name",
          "type": "string"
        },
        {
          "name": "_symbol",
          "type": "string"
        },
        {
          "name": "_initialConversion",
          "type": "uint8"
        }
      ],
      "payable": false,
      "stateMutability": "nonpayable",
      "type": "constructor",
      "signature": "constructor"
    },
    {
      "payable": true,
      "stateMutability": "payable",
      "type": "fallback"
    },
    {
      "anonymous": false,
      "inputs": [
        {
          "indexed": false,
          "name": "from",
          "type": "address"
        },
        {
          "indexed": false,
          "name": "to",
          "type": "address"
        },
        {
          "indexed": false,
          "name": "amount",
          "type": "uint256"
        }
      ],
      "name": "Transfer",
      "type": "event",
      "signature": "0xddf252ad1be2c89b69c2b068fc378daa952ba7f163c4a11628f55a4df523b3ef"
    },
    {
      "constant": true,
      "inputs": [
        {
          "name": "myAddress",
          "type": "address"
        }
      ],
      "name": "getMyWishListAmount",
      "outputs": [
        {
          "name": "",
          "type": "uint256"
        }
      ],
      "payable": false,
      "stateMutability": "view",
      "type": "function",
      "signature": "0x2685e726"
    },
    {
      "constant": false,
      "inputs": [
        {
          "name": "amount",
          "type": "uint256"
        },
        {
          "name": "recipient",
          "type": "address"
        }
      ],
      "name": "transferMyWishListTokens",
      "outputs": [],
      "payable": false,
      "stateMutability": "nonpayable",
      "type": "function",
      "signature": "0xb7881414"
    }
  ],
  "bytecode": "0x608060405234801561001057600080fd5b506040516108303803806108308339810180604052606081101561003357600080fd5b81019080805164010000000081111561004b57600080fd5b8281019050602081018481111561006157600080fd5b815185600182028301116401000000008211171561007e57600080fd5b5050929190602001805164010000000081111561009a57600080fd5b828101905060208101848111156100b057600080fd5b81518560018202830111640100000000821117156100cd57600080fd5b50509291906020018051906020019092919050505060008160ff161115156100f457600080fd5b42600081905550620f4240420160018190555080600260006101000a81548160ff021916908360ff16021790555033600260016101000a81548173ffffffffffffffffffffffffffffffffffffffff021916908373ffffffffffffffffffffffffffffffffffffffff1602179055506103e8600360003373ffffffffffffffffffffffffffffffffffffffff1673ffffffffffffffffffffffffffffffffffffffff16815260200190815260200160002081905550505050610675806101bb6000396000f3fe608060405260043610610083576000357c0100000000000000000000000000000000000000000000000000000000900463ffffffff1680630b97bc861461008f5780632685e726146100ba5780638da5cb5b1461011f5780639443391b14610176578063b7881414146101a7578063c24a0f8b14610202578063ea5991061461022d575b61008d3334610292565b005b34801561009b57600080fd5b506100a4610434565b6040518082815260200191505060405180910390f35b3480156100c657600080fd5b50610109600480360360208110156100dd57600080fd5b81019080803573ffffffffffffffffffffffffffffffffffffffff16906020019092919050505061043a565b6040518082815260200191505060405180910390f35b34801561012b57600080fd5b50610134610483565b604051808273ffffffffffffffffffffffffffffffffffffffff1673ffffffffffffffffffffffffffffffffffffffff16815260200191505060405180910390f35b34801561018257600080fd5b5061018b6104a9565b604051808260ff1660ff16815260200191505060405180910390f35b3480156101b357600080fd5b50610200600480360360408110156101ca57600080fd5b8101908080359060200190929190803573ffffffffffffffffffffffffffffffffffffffff1690602001909291905050506104bc565b005b34801561020e57600080fd5b506102176105ed565b6040518082815260200191505060405180910390f35b34801561023957600080fd5b5061027c6004803603602081101561025057600080fd5b81019080803573ffffffffffffffffffffffffffffffffffffffff1690602001909291905050506105f3565b6040518082815260200191505060405180910390f35b60015442111515156102a357600080fd5b60006102ca600260009054906101000a900460ff1660ff168361060b90919063ffffffff16565b905080600360008573ffffffffffffffffffffffffffffffffffffffff1673ffffffffffffffffffffffffffffffffffffffff16815260200190815260200160002081905550600260019054906101000a900473ffffffffffffffffffffffffffffffffffffffff1673ffffffffffffffffffffffffffffffffffffffff166108fc3073ffffffffffffffffffffffffffffffffffffffff16319081150290604051600060405180830381858888f1935050505015801561038f573d6000803e3d6000fd5b507fddf252ad1be2c89b69c2b068fc378daa952ba7f163c4a11628f55a4df523b3ef308483604051808473ffffffffffffffffffffffffffffffffffffffff1673ffffffffffffffffffffffffffffffffffffffff1681526020018373ffffffffffffffffffffffffffffffffffffffff1673ffffffffffffffffffffffffffffffffffffffff168152602001828152602001935050505060405180910390a1505050565b60005481565b6000600360008373ffffffffffffffffffffffffffffffffffffffff1673ffffffffffffffffffffffffffffffffffffffff168152602001908152602001600020549050919050565b600260019054906101000a900473ffffffffffffffffffffffffffffffffffffffff1681565b600260009054906101000a900460ff1681565b81600360003373ffffffffffffffffffffffffffffffffffffffff1673ffffffffffffffffffffffffffffffffffffffff168152602001908152602001600020541015801561050b5750600082115b80156105445750600073ffffffffffffffffffffffffffffffffffffffff168173ffffffffffffffffffffffffffffffffffffffff1614155b151561054f57600080fd5b81600360003373ffffffffffffffffffffffffffffffffffffffff1673ffffffffffffffffffffffffffffffffffffffff1681526020019081526020016000206000828254039250508190555081600360008373ffffffffffffffffffffffffffffffffffffffff1673ffffffffffffffffffffffffffffffffffffffff168152602001908152602001600020600082825401925050819055505050565b60015481565b60036020528060005260406000206000915090505481565b60008083141561061e5760009050610643565b6000828402905082848281151561063157fe5b0414151561063e57600080fd5b809150505b9291505056fea165627a7a7230582029bbd50d21a26134fe7feadc82d52cc79a44d1ffee3caf818df62276c9a2f1a80029",
  "source": "pragma solidity 0.5.0;\n\nimport \"openzeppelin-solidity/contracts/math/SafeMath.sol\";\n\n\ncontract Ico {\n    using SafeMath for uint256;\n\n    uint256 public startDate;\n    uint256 public endDate;\n    uint8 public initialConversion;\n    address payable public owner;\n    mapping(address => uint) public wishList;\n\n    event Transfer(\n        address from,\n        address to,\n        uint256 amount\n    );\n    \n    constructor (\n        string memory _name,\n        string memory _symbol,\n        uint8 _initialConversion\n    ) public {\n        require(\n            _initialConversion > 0\n        );\n        startDate = now;\n        endDate = now+1000000;\n        initialConversion = _initialConversion;\n        owner = msg.sender;\n        wishList[msg.sender] = 1000;\n    }\n\n    function getMyWishListAmount(address myAddress) public view returns(uint) {\n        return wishList[myAddress];\n    }\n\n    function transferMyWishListTokens(uint256 amount, address recipient) public {\n        require(\n            wishList[msg.sender] >= amount &&\n            amount > 0 &&\n            recipient != address(0)\n        );\n        wishList[msg.sender] -= amount;\n        wishList[recipient] += amount;\n    }\n\n    function () external payable {\n        release(msg.sender, msg.value); \n    }\n\n    function release(address user, uint256 value) private {\n\t    require(now <= endDate);\n        uint256 _amount = value.mul(initialConversion);\n        wishList[user] = _amount;\n        owner.transfer(address(this).balance);\n        emit Transfer(address(this), user, _amount);\n    }\n}",
  "sourcePath": "/home/dev/d/tmp/ico/contracts/Ico.sol",
  "compiler": {
    "name": "solc",
    "version": "0.5.0+commit.1d4f565a.Emscripten.clang"
  },
  "schemaVersion": "3.0.2",
  "updatedAt": "2019-03-30T18:58:27.916Z",
  "devdoc": {
    "methods": {}
  },
  "userdoc": {
    "methods": {}
  }
}